{
  "_format": "hh-sol-artifact-1",
  "contractName": "Web3Mint",
  "sourceName": "contracts/Web3Mint.sol",
  "abi": [
    {
      "inputs": [],
      "stateMutability": "nonpayable",
      "type": "constructor"
    },
    {
      "anonymous": false,
      "inputs": [
        {
          "indexed": true,
          "internalType": "address",
          "name": "owner",
          "type": "address"
        },
        {
          "indexed": true,
          "internalType": "address",
          "name": "approved",
          "type": "address"
        },
        {
          "indexed": true,
          "internalType": "uint256",
          "name": "tokenId",
          "type": "uint256"
        }
      ],
      "name": "Approval",
      "type": "event"
    },
    {
      "anonymous": false,
      "inputs": [
        {
          "indexed": true,
          "internalType": "address",
          "name": "owner",
          "type": "address"
        },
        {
          "indexed": true,
          "internalType": "address",
          "name": "operator",
          "type": "address"
        },
        {
          "indexed": false,
          "internalType": "bool",
          "name": "approved",
          "type": "bool"
        }
      ],
      "name": "ApprovalForAll",
      "type": "event"
    },
    {
      "anonymous": false,
      "inputs": [
        {
          "indexed": false,
          "internalType": "address",
          "name": "sender",
          "type": "address"
        },
        {
          "indexed": false,
          "internalType": "uint256",
          "name": "tokenId",
          "type": "uint256"
        }
      ],
      "name": "NewEpicNFTMinted",
      "type": "event"
    },
    {
      "anonymous": false,
      "inputs": [
        {
          "indexed": true,
          "internalType": "address",
          "name": "from",
          "type": "address"
        },
        {
          "indexed": true,
          "internalType": "address",
          "name": "to",
          "type": "address"
        },
        {
          "indexed": true,
          "internalType": "uint256",
          "name": "tokenId",
          "type": "uint256"
        }
      ],
      "name": "Transfer",
      "type": "event"
    },
    {
      "inputs": [
        {
          "internalType": "address",
          "name": "to",
          "type": "address"
        },
        {
          "internalType": "uint256",
          "name": "tokenId",
          "type": "uint256"
        }
      ],
      "name": "approve",
      "outputs": [],
      "stateMutability": "nonpayable",
      "type": "function"
    },
    {
      "inputs": [
        {
          "internalType": "address",
          "name": "owner",
          "type": "address"
        }
      ],
      "name": "balanceOf",
      "outputs": [
        {
          "internalType": "uint256",
          "name": "",
          "type": "uint256"
        }
      ],
      "stateMutability": "view",
      "type": "function"
    },
    {
      "inputs": [
        {
          "internalType": "uint256",
          "name": "tokenId",
          "type": "uint256"
        }
      ],
      "name": "getApproved",
      "outputs": [
        {
          "internalType": "address",
          "name": "",
          "type": "address"
        }
      ],
      "stateMutability": "view",
      "type": "function"
    },
    {
      "inputs": [
        {
          "internalType": "address",
          "name": "owner",
          "type": "address"
        },
        {
          "internalType": "address",
          "name": "operator",
          "type": "address"
        }
      ],
      "name": "isApprovedForAll",
      "outputs": [
        {
          "internalType": "bool",
          "name": "",
          "type": "bool"
        }
      ],
      "stateMutability": "view",
      "type": "function"
    },
    {
      "inputs": [
        {
          "internalType": "string",
          "name": "name",
          "type": "string"
        },
        {
          "internalType": "string",
          "name": "imageURI",
          "type": "string"
        },
        {
          "internalType": "string",
          "name": "menuIngredient",
          "type": "string"
        },
        {
          "internalType": "string",
          "name": "recipeProcess",
          "type": "string"
        }
      ],
      "name": "mintIpfsNFT",
      "outputs": [],
      "stateMutability": "nonpayable",
      "type": "function"
    },
    {
      "inputs": [],
      "name": "name",
      "outputs": [
        {
          "internalType": "string",
          "name": "",
          "type": "string"
        }
      ],
      "stateMutability": "view",
      "type": "function"
    },
    {
      "inputs": [
        {
          "internalType": "uint256",
          "name": "tokenId",
          "type": "uint256"
        }
      ],
      "name": "ownerOf",
      "outputs": [
        {
          "internalType": "address",
          "name": "",
          "type": "address"
        }
      ],
      "stateMutability": "view",
      "type": "function"
    },
    {
      "inputs": [
        {
          "internalType": "address",
          "name": "from",
          "type": "address"
        },
        {
          "internalType": "address",
          "name": "to",
          "type": "address"
        },
        {
          "internalType": "uint256",
          "name": "tokenId",
          "type": "uint256"
        }
      ],
      "name": "safeTransferFrom",
      "outputs": [],
      "stateMutability": "nonpayable",
      "type": "function"
    },
    {
      "inputs": [
        {
          "internalType": "address",
          "name": "from",
          "type": "address"
        },
        {
          "internalType": "address",
          "name": "to",
          "type": "address"
        },
        {
          "internalType": "uint256",
          "name": "tokenId",
          "type": "uint256"
        },
        {
          "internalType": "bytes",
          "name": "data",
          "type": "bytes"
        }
      ],
      "name": "safeTransferFrom",
      "outputs": [],
      "stateMutability": "nonpayable",
      "type": "function"
    },
    {
      "inputs": [
        {
          "internalType": "address",
          "name": "operator",
          "type": "address"
        },
        {
          "internalType": "bool",
          "name": "approved",
          "type": "bool"
        }
      ],
      "name": "setApprovalForAll",
      "outputs": [],
      "stateMutability": "nonpayable",
      "type": "function"
    },
    {
      "inputs": [
        {
          "internalType": "bytes4",
          "name": "interfaceId",
          "type": "bytes4"
        }
      ],
      "name": "supportsInterface",
      "outputs": [
        {
          "internalType": "bool",
          "name": "",
          "type": "bool"
        }
      ],
      "stateMutability": "view",
      "type": "function"
    },
    {
      "inputs": [],
      "name": "symbol",
      "outputs": [
        {
          "internalType": "string",
          "name": "",
          "type": "string"
        }
      ],
      "stateMutability": "view",
      "type": "function"
    },
    {
      "inputs": [
        {
          "internalType": "uint256",
          "name": "_tokenId",
          "type": "uint256"
        }
      ],
      "name": "tokenURI",
      "outputs": [
        {
          "internalType": "string",
          "name": "",
          "type": "string"
        }
      ],
      "stateMutability": "view",
      "type": "function"
    },
    {
      "inputs": [
        {
          "internalType": "address",
          "name": "from",
          "type": "address"
        },
        {
          "internalType": "address",
          "name": "to",
          "type": "address"
        },
        {
          "internalType": "uint256",
          "name": "tokenId",
          "type": "uint256"
        }
      ],
      "name": "transferFrom",
      "outputs": [],
      "stateMutability": "nonpayable",
      "type": "function"
    }
  ],
  "bytecode": "0x60806040523480156200001157600080fd5b506040518060400160405280600981526020017f7265636970654e465400000000000000000000000000000000000000000000008152506040518060400160405280600481526020017f724e465400000000000000000000000000000000000000000000000000000000815250816000908051906020019062000096929190620001cf565b508060019080519060200190620000af929190620001cf565b505050620000fd6040518060400160405280601481526020017f526563697065204e465420636f6e74726163742e0000000000000000000000008152506200010360201b62000c481760201c565b620003ac565b620001a3816040516024016200011a919062000323565b6040516020818303038152906040527f41304fac000000000000000000000000000000000000000000000000000000007bffffffffffffffffffffffffffffffffffffffffffffffffffffffff19166020820180517bffffffffffffffffffffffffffffffffffffffffffffffffffffffff8381831617835250505050620001a660201b60201c565b50565b60008151905060006a636f6e736f6c652e6c6f679050602083016000808483855afa5050505050565b828054620001dd9062000376565b90600052602060002090601f0160209004810192826200020157600085556200024d565b82601f106200021c57805160ff19168380011785556200024d565b828001600101855582156200024d579182015b828111156200024c5782518255916020019190600101906200022f565b5b5090506200025c919062000260565b5090565b5b808211156200027b57600081600090555060010162000261565b5090565b600081519050919050565b600082825260208201905092915050565b60005b83811015620002bb5780820151818401526020810190506200029e565b83811115620002cb576000848401525b50505050565b6000601f19601f8301169050919050565b6000620002ef826200027f565b620002fb81856200028a565b93506200030d8185602086016200029b565b6200031881620002d1565b840191505092915050565b600060208201905081810360008301526200033f8184620002e2565b905092915050565b7f4e487b7100000000000000000000000000000000000000000000000000000000600052602260045260246000fd5b600060028204905060018216806200038f57607f821691505b60208210811415620003a657620003a562000347565b5b50919050565b6131a080620003bc6000396000f3fe608060405234801561001057600080fd5b50600436106100ea5760003560e01c80636352211e1161008c578063a22cb46511610066578063a22cb4651461025b578063b88d4fde14610277578063c87b56dd14610293578063e985e9c5146102c3576100ea565b80636352211e146101dd57806370a082311461020d57806395d89b411461023d576100ea565b8063095ea7b3116100c8578063095ea7b31461016d5780630ef3b95e1461018957806323b872dd146101a557806342842e0e146101c1576100ea565b806301ffc9a7146100ef57806306fdde031461011f578063081812fc1461013d575b600080fd5b61010960048036038101906101049190611c93565b6102f3565b6040516101169190611cdb565b60405180910390f35b6101276103d5565b6040516101349190611d8f565b60405180910390f35b61015760048036038101906101529190611de7565b610467565b6040516101649190611e55565b60405180910390f35b61018760048036038101906101829190611e9c565b6104ad565b005b6101a3600480360381019061019e9190612011565b6105c5565b005b6101bf60048036038101906101ba91906120e8565b6107ea565b005b6101db60048036038101906101d691906120e8565b61084a565b005b6101f760048036038101906101f29190611de7565b61086a565b6040516102049190611e55565b60405180910390f35b6102276004803603810190610222919061213b565b61091c565b6040516102349190612177565b60405180910390f35b6102456109d4565b6040516102529190611d8f565b60405180910390f35b610275600480360381019061027091906121be565b610a66565b005b610291600480360381019061028c919061229f565b610a7c565b005b6102ad60048036038101906102a89190611de7565b610ade565b6040516102ba9190611d8f565b60405180910390f35b6102dd60048036038101906102d89190612322565b610bb4565b6040516102ea9190611cdb565b60405180910390f35b60007f80ac58cd000000000000000000000000000000000000000000000000000000007bffffffffffffffffffffffffffffffffffffffffffffffffffffffff1916827bffffffffffffffffffffffffffffffffffffffffffffffffffffffff191614806103be57507f5b5e139f000000000000000000000000000000000000000000000000000000007bffffffffffffffffffffffffffffffffffffffffffffffffffffffff1916827bffffffffffffffffffffffffffffffffffffffffffffffffffffffff1916145b806103ce57506103cd82610ce1565b5b9050919050565b6060600080546103e490612391565b80601f016020809104026020016040519081016040528092919081815260200182805461041090612391565b801561045d5780601f106104325761010080835404028352916020019161045d565b820191906000526020600020905b81548152906001019060200180831161044057829003601f168201915b5050505050905090565b600061047282610d4b565b6004600083815260200190815260200160002060009054906101000a900473ffffffffffffffffffffffffffffffffffffffff169050919050565b60006104b88261086a565b90508073ffffffffffffffffffffffffffffffffffffffff168373ffffffffffffffffffffffffffffffffffffffff161415610529576040517f08c379a000000000000000000000000000000000000000000000000000000000815260040161052090612435565b60405180910390fd5b8073ffffffffffffffffffffffffffffffffffffffff16610548610d96565b73ffffffffffffffffffffffffffffffffffffffff161480610577575061057681610571610d96565b610bb4565b5b6105b6576040517f08c379a00000000000000000000000000000000000000000000000000000000081526004016105ad906124c7565b60405180910390fd5b6105c08383610d9e565b505050565b60006105d16009610e57565b90506105fd83836040516020016105e9929190612607565b604051602081830303815290604052610e65565b60079080519060200190610612929190611b84565b506007604051602001610625919061272c565b60405160208183030381529060405260089080519060200190610649929190611b84565b506106543382610ffd565b600660405180606001604052808781526020018681526020016008805461067a90612391565b80601f01602080910402602001604051908101604052809291908181526020018280546106a690612391565b80156106f35780601f106106c8576101008083540402835291602001916106f3565b820191906000526020600020905b8154815290600101906020018083116106d657829003601f168201915b505050505081525090806001815401808255809150506001900390600052602060002090600302016000909190919091506000820151816000019080519060200190610740929190611b84565b50602082015181600101908051906020019061075d929190611b84565b50604082015181600201908051906020019061077a929190611b84565b5050506107a060405180606001604052806025815260200161310660259139823361101b565b6107aa60096110ba565b7febb98688741ffa4c7589bf325de30cf7becb63de567842e1ccdb6cb949fdc82c33826040516107db92919061274e565b60405180910390a15050505050565b6107fb6107f5610d96565b826110d0565b61083a576040517f08c379a0000000000000000000000000000000000000000000000000000000008152600401610831906127e9565b60405180910390fd5b610845838383611165565b505050565b61086583838360405180602001604052806000815250610a7c565b505050565b6000806002600084815260200190815260200160002060009054906101000a900473ffffffffffffffffffffffffffffffffffffffff169050600073ffffffffffffffffffffffffffffffffffffffff168173ffffffffffffffffffffffffffffffffffffffff161415610913576040517f08c379a000000000000000000000000000000000000000000000000000000000815260040161090a90612855565b60405180910390fd5b80915050919050565b60008073ffffffffffffffffffffffffffffffffffffffff168273ffffffffffffffffffffffffffffffffffffffff16141561098d576040517f08c379a0000000000000000000000000000000000000000000000000000000008152600401610984906128e7565b60405180910390fd5b600360008373ffffffffffffffffffffffffffffffffffffffff1673ffffffffffffffffffffffffffffffffffffffff168152602001908152602001600020549050919050565b6060600180546109e390612391565b80601f0160208091040260200160405190810160405280929190818152602001828054610a0f90612391565b8015610a5c5780601f10610a3157610100808354040283529160200191610a5c565b820191906000526020600020905b815481529060010190602001808311610a3f57829003601f168201915b5050505050905090565b610a78610a71610d96565b83836113cc565b5050565b610a8d610a87610d96565b836110d0565b610acc576040517f08c379a0000000000000000000000000000000000000000000000000000000008152600401610ac3906127e9565b60405180910390fd5b610ad884848484611539565b50505050565b60606000610b8460068481548110610af957610af8612907565b5b9060005260206000209060030201600001610b1385611595565b60068681548110610b2757610b26612907565b5b906000526020600020906003020160020160068781548110610b4c57610b4b612907565b5b9060005260206000209060030201600101604051602001610b709493929190612a66565b604051602081830303815290604052610e65565b9050600081604051602001610b999190612adb565b60405160208183030381529060405290508092505050919050565b6000600560008473ffffffffffffffffffffffffffffffffffffffff1673ffffffffffffffffffffffffffffffffffffffff16815260200190815260200160002060008373ffffffffffffffffffffffffffffffffffffffff1673ffffffffffffffffffffffffffffffffffffffff16815260200190815260200160002060009054906101000a900460ff16905092915050565b610cde81604051602401610c5c9190611d8f565b6040516020818303038152906040527f41304fac000000000000000000000000000000000000000000000000000000007bffffffffffffffffffffffffffffffffffffffffffffffffffffffff19166020820180517bffffffffffffffffffffffffffffffffffffffffffffffffffffffff83818316178352505050506116f6565b50565b60007f01ffc9a7000000000000000000000000000000000000000000000000000000007bffffffffffffffffffffffffffffffffffffffffffffffffffffffff1916827bffffffffffffffffffffffffffffffffffffffffffffffffffffffff1916149050919050565b610d548161171f565b610d93576040517f08c379a0000000000000000000000000000000000000000000000000000000008152600401610d8a90612855565b60405180910390fd5b50565b600033905090565b816004600083815260200190815260200160002060006101000a81548173ffffffffffffffffffffffffffffffffffffffff021916908373ffffffffffffffffffffffffffffffffffffffff160217905550808273ffffffffffffffffffffffffffffffffffffffff16610e118361086a565b73ffffffffffffffffffffffffffffffffffffffff167f8c5be1e5ebec7d5bd14f71427d1e84f3dd0314c0f7b2291e5b200ac8c7c3b92560405160405180910390a45050565b600081600001549050919050565b60606000825190506000811415610e8e5760405180602001604052806000815250915050610ff8565b60006003600283610e9f9190612b2c565b610ea99190612bb1565b6004610eb59190612be2565b90506000602082610ec69190612b2c565b67ffffffffffffffff811115610edf57610ede611ee6565b5b6040519080825280601f01601f191660200182016040528015610f115781602001600182028036833780820191505090505b509050600060405180606001604052806040815260200161312b604091399050600181016020830160005b86811015610fb55760038101905062ffffff818a015116603f8160121c168401518060081b905060ff603f83600c1c1686015116810190508060081b905060ff603f8360061c1686015116810190508060081b905060ff603f831686015116810190508060e01b90508084526004840193505050610f3c565b506003860660018114610fcf5760028114610fdf57610fea565b613d3d60f01b6002830352610fea565b603d60f81b60018303525b508484525050819450505050505b919050565b61101782826040518060200160405280600081525061178b565b5050565b6110b583838360405160240161103393929190612c3c565b6040516020818303038152906040527f1c7ec448000000000000000000000000000000000000000000000000000000007bffffffffffffffffffffffffffffffffffffffffffffffffffffffff19166020820180517bffffffffffffffffffffffffffffffffffffffffffffffffffffffff83818316178352505050506116f6565b505050565b6001816000016000828254019250508190555050565b6000806110dc8361086a565b90508073ffffffffffffffffffffffffffffffffffffffff168473ffffffffffffffffffffffffffffffffffffffff16148061111e575061111d8185610bb4565b5b8061115c57508373ffffffffffffffffffffffffffffffffffffffff1661114484610467565b73ffffffffffffffffffffffffffffffffffffffff16145b91505092915050565b8273ffffffffffffffffffffffffffffffffffffffff166111858261086a565b73ffffffffffffffffffffffffffffffffffffffff16146111db576040517f08c379a00000000000000000000000000000000000000000000000000000000081526004016111d290612cec565b60405180910390fd5b600073ffffffffffffffffffffffffffffffffffffffff168273ffffffffffffffffffffffffffffffffffffffff16141561124b576040517f08c379a000000000000000000000000000000000000000000000000000000000815260040161124290612d7e565b60405180910390fd5b6112568383836117e6565b611261600082610d9e565b6001600360008573ffffffffffffffffffffffffffffffffffffffff1673ffffffffffffffffffffffffffffffffffffffff16815260200190815260200160002060008282546112b19190612d9e565b925050819055506001600360008473ffffffffffffffffffffffffffffffffffffffff1673ffffffffffffffffffffffffffffffffffffffff16815260200190815260200160002060008282546113089190612b2c565b92505081905550816002600083815260200190815260200160002060006101000a81548173ffffffffffffffffffffffffffffffffffffffff021916908373ffffffffffffffffffffffffffffffffffffffff160217905550808273ffffffffffffffffffffffffffffffffffffffff168473ffffffffffffffffffffffffffffffffffffffff167fddf252ad1be2c89b69c2b068fc378daa952ba7f163c4a11628f55a4df523b3ef60405160405180910390a46113c78383836117eb565b505050565b8173ffffffffffffffffffffffffffffffffffffffff168373ffffffffffffffffffffffffffffffffffffffff16141561143b576040517f08c379a000000000000000000000000000000000000000000000000000000000815260040161143290612e1e565b60405180910390fd5b80600560008573ffffffffffffffffffffffffffffffffffffffff1673ffffffffffffffffffffffffffffffffffffffff16815260200190815260200160002060008473ffffffffffffffffffffffffffffffffffffffff1673ffffffffffffffffffffffffffffffffffffffff16815260200190815260200160002060006101000a81548160ff0219169083151502179055508173ffffffffffffffffffffffffffffffffffffffff168373ffffffffffffffffffffffffffffffffffffffff167f17307eab39ab6107e8899845ad3d59bd9653f200f220920489ca2b5937696c318360405161152c9190611cdb565b60405180910390a3505050565b611544848484611165565b611550848484846117f0565b61158f576040517f08c379a000000000000000000000000000000000000000000000000000000000815260040161158690612eb0565b60405180910390fd5b50505050565b606060008214156115dd576040518060400160405280600181526020017f300000000000000000000000000000000000000000000000000000000000000081525090506116f1565b600082905060005b6000821461160f5780806115f890612ed0565b915050600a826116089190612bb1565b91506115e5565b60008167ffffffffffffffff81111561162b5761162a611ee6565b5b6040519080825280601f01601f19166020018201604052801561165d5781602001600182028036833780820191505090505b5090505b600085146116ea576001826116769190612d9e565b9150600a856116859190612f19565b60306116919190612b2c565b60f81b8183815181106116a7576116a6612907565b5b60200101907effffffffffffffffffffffffffffffffffffffffffffffffffffffffffffff1916908160001a905350600a856116e39190612bb1565b9450611661565b8093505050505b919050565b60008151905060006a636f6e736f6c652e6c6f679050602083016000808483855afa5050505050565b60008073ffffffffffffffffffffffffffffffffffffffff166002600084815260200190815260200160002060009054906101000a900473ffffffffffffffffffffffffffffffffffffffff1673ffffffffffffffffffffffffffffffffffffffff1614159050919050565b6117958383611987565b6117a260008484846117f0565b6117e1576040517f08c379a00000000000000000000000000000000000000000000000000000000081526004016117d890612eb0565b60405180910390fd5b505050565b505050565b505050565b60006118118473ffffffffffffffffffffffffffffffffffffffff16611b61565b1561197a578373ffffffffffffffffffffffffffffffffffffffff1663150b7a0261183a610d96565b8786866040518563ffffffff1660e01b815260040161185c9493929190612f9f565b602060405180830381600087803b15801561187657600080fd5b505af19250505080156118a757506040513d601f19601f820116820180604052508101906118a49190613000565b60015b61192a573d80600081146118d7576040519150601f19603f3d011682016040523d82523d6000602084013e6118dc565b606091505b50600081511415611922576040517f08c379a000000000000000000000000000000000000000000000000000000000815260040161191990612eb0565b60405180910390fd5b805181602001fd5b63150b7a0260e01b7bffffffffffffffffffffffffffffffffffffffffffffffffffffffff1916817bffffffffffffffffffffffffffffffffffffffffffffffffffffffff19161491505061197f565b600190505b949350505050565b600073ffffffffffffffffffffffffffffffffffffffff168273ffffffffffffffffffffffffffffffffffffffff1614156119f7576040517f08c379a00000000000000000000000000000000000000000000000000000000081526004016119ee90613079565b60405180910390fd5b611a008161171f565b15611a40576040517f08c379a0000000000000000000000000000000000000000000000000000000008152600401611a37906130e5565b60405180910390fd5b611a4c600083836117e6565b6001600360008473ffffffffffffffffffffffffffffffffffffffff1673ffffffffffffffffffffffffffffffffffffffff1681526020019081526020016000206000828254611a9c9190612b2c565b92505081905550816002600083815260200190815260200160002060006101000a81548173ffffffffffffffffffffffffffffffffffffffff021916908373ffffffffffffffffffffffffffffffffffffffff160217905550808273ffffffffffffffffffffffffffffffffffffffff16600073ffffffffffffffffffffffffffffffffffffffff167fddf252ad1be2c89b69c2b068fc378daa952ba7f163c4a11628f55a4df523b3ef60405160405180910390a4611b5d600083836117eb565b5050565b6000808273ffffffffffffffffffffffffffffffffffffffff163b119050919050565b828054611b9090612391565b90600052602060002090601f016020900481019282611bb25760008555611bf9565b82601f10611bcb57805160ff1916838001178555611bf9565b82800160010185558215611bf9579182015b82811115611bf8578251825591602001919060010190611bdd565b5b509050611c069190611c0a565b5090565b5b80821115611c23576000816000905550600101611c0b565b5090565b6000604051905090565b600080fd5b600080fd5b60007fffffffff0000000000000000000000000000000000000000000000000000000082169050919050565b611c7081611c3b565b8114611c7b57600080fd5b50565b600081359050611c8d81611c67565b92915050565b600060208284031215611ca957611ca8611c31565b5b6000611cb784828501611c7e565b91505092915050565b60008115159050919050565b611cd581611cc0565b82525050565b6000602082019050611cf06000830184611ccc565b92915050565b600081519050919050565b600082825260208201905092915050565b60005b83811015611d30578082015181840152602081019050611d15565b83811115611d3f576000848401525b50505050565b6000601f19601f8301169050919050565b6000611d6182611cf6565b611d6b8185611d01565b9350611d7b818560208601611d12565b611d8481611d45565b840191505092915050565b60006020820190508181036000830152611da98184611d56565b905092915050565b6000819050919050565b611dc481611db1565b8114611dcf57600080fd5b50565b600081359050611de181611dbb565b92915050565b600060208284031215611dfd57611dfc611c31565b5b6000611e0b84828501611dd2565b91505092915050565b600073ffffffffffffffffffffffffffffffffffffffff82169050919050565b6000611e3f82611e14565b9050919050565b611e4f81611e34565b82525050565b6000602082019050611e6a6000830184611e46565b92915050565b611e7981611e34565b8114611e8457600080fd5b50565b600081359050611e9681611e70565b92915050565b60008060408385031215611eb357611eb2611c31565b5b6000611ec185828601611e87565b9250506020611ed285828601611dd2565b9150509250929050565b600080fd5b600080fd5b7f4e487b7100000000000000000000000000000000000000000000000000000000600052604160045260246000fd5b611f1e82611d45565b810181811067ffffffffffffffff82111715611f3d57611f3c611ee6565b5b80604052505050565b6000611f50611c27565b9050611f5c8282611f15565b919050565b600067ffffffffffffffff821115611f7c57611f7b611ee6565b5b611f8582611d45565b9050602081019050919050565b82818337600083830152505050565b6000611fb4611faf84611f61565b611f46565b905082815260208101848484011115611fd057611fcf611ee1565b5b611fdb848285611f92565b509392505050565b600082601f830112611ff857611ff7611edc565b5b8135612008848260208601611fa1565b91505092915050565b6000806000806080858703121561202b5761202a611c31565b5b600085013567ffffffffffffffff81111561204957612048611c36565b5b61205587828801611fe3565b945050602085013567ffffffffffffffff81111561207657612075611c36565b5b61208287828801611fe3565b935050604085013567ffffffffffffffff8111156120a3576120a2611c36565b5b6120af87828801611fe3565b925050606085013567ffffffffffffffff8111156120d0576120cf611c36565b5b6120dc87828801611fe3565b91505092959194509250565b60008060006060848603121561210157612100611c31565b5b600061210f86828701611e87565b935050602061212086828701611e87565b925050604061213186828701611dd2565b9150509250925092565b60006020828403121561215157612150611c31565b5b600061215f84828501611e87565b91505092915050565b61217181611db1565b82525050565b600060208201905061218c6000830184612168565b92915050565b61219b81611cc0565b81146121a657600080fd5b50565b6000813590506121b881612192565b92915050565b600080604083850312156121d5576121d4611c31565b5b60006121e385828601611e87565b92505060206121f4858286016121a9565b9150509250929050565b600067ffffffffffffffff82111561221957612218611ee6565b5b61222282611d45565b9050602081019050919050565b600061224261223d846121fe565b611f46565b90508281526020810184848401111561225e5761225d611ee1565b5b612269848285611f92565b509392505050565b600082601f83011261228657612285611edc565b5b813561229684826020860161222f565b91505092915050565b600080600080608085870312156122b9576122b8611c31565b5b60006122c787828801611e87565b94505060206122d887828801611e87565b93505060406122e987828801611dd2565b925050606085013567ffffffffffffffff81111561230a57612309611c36565b5b61231687828801612271565b91505092959194509250565b6000806040838503121561233957612338611c31565b5b600061234785828601611e87565b925050602061235885828601611e87565b9150509250929050565b7f4e487b7100000000000000000000000000000000000000000000000000000000600052602260045260246000fd5b600060028204905060018216806123a957607f821691505b602082108114156123bd576123bc612362565b5b50919050565b7f4552433732313a20617070726f76616c20746f2063757272656e74206f776e6560008201527f7200000000000000000000000000000000000000000000000000000000000000602082015250565b600061241f602183611d01565b915061242a826123c3565b604082019050919050565b6000602082019050818103600083015261244e81612412565b9050919050565b7f4552433732313a20617070726f76652063616c6c6572206973206e6f7420746f60008201527f6b656e206f776e6572206e6f7220617070726f76656420666f7220616c6c0000602082015250565b60006124b1603e83611d01565b91506124bc82612455565b604082019050919050565b600060208201905081810360008301526124e0816124a4565b9050919050565b600081905092915050565b7f7b22496e6772656469656e74223a202200000000000000000000000000000000600082015250565b60006125286010836124e7565b9150612533826124f2565b601082019050919050565b600061254982611cf6565b61255381856124e7565b9350612563818560208601611d12565b80840191505092915050565b7f222c2272656369706550726f63657373223a2022000000000000000000000000600082015250565b60006125a56014836124e7565b91506125b08261256f565b601482019050919050565b7f227d000000000000000000000000000000000000000000000000000000000000600082015250565b60006125f16002836124e7565b91506125fc826125bb565b600282019050919050565b60006126128261251b565b915061261e828561253e565b915061262982612598565b9150612635828461253e565b9150612640826125e4565b91508190509392505050565b7f646174613a6170706c69636174696f6e2f6a736f6e3b6261736536342c000000600082015250565b6000612682601d836124e7565b915061268d8261264c565b601d82019050919050565b60008190508160005260206000209050919050565b600081546126ba81612391565b6126c481866124e7565b945060018216600081146126df57600181146126f057612723565b60ff19831686528186019350612723565b6126f985612698565b60005b8381101561271b578154818901526001820191506020810190506126fc565b838801955050505b50505092915050565b600061273782612675565b915061274382846126ad565b915081905092915050565b60006040820190506127636000830185611e46565b6127706020830184612168565b9392505050565b7f4552433732313a2063616c6c6572206973206e6f7420746f6b656e206f776e6560008201527f72206e6f7220617070726f766564000000000000000000000000000000000000602082015250565b60006127d3602e83611d01565b91506127de82612777565b604082019050919050565b60006020820190508181036000830152612802816127c6565b9050919050565b7f4552433732313a20696e76616c696420746f6b656e2049440000000000000000600082015250565b600061283f601883611d01565b915061284a82612809565b602082019050919050565b6000602082019050818103600083015261286e81612832565b9050919050565b7f4552433732313a2061646472657373207a65726f206973206e6f74206120766160008201527f6c6964206f776e65720000000000000000000000000000000000000000000000602082015250565b60006128d1602983611d01565b91506128dc82612875565b604082019050919050565b60006020820190508181036000830152612900816128c4565b9050919050565b7f4e487b7100000000000000000000000000000000000000000000000000000000600052603260045260246000fd5b7f7b226e616d65223a202200000000000000000000000000000000000000000000600082015250565b600061296c600a836124e7565b915061297782612936565b600a82019050919050565b7f20233a2000000000000000000000000000000000000000000000000000000000600082015250565b60006129b86004836124e7565b91506129c382612982565b600482019050919050565b7f222c20226465736372697074696f6e223a202200000000000000000000000000600082015250565b6000612a046013836124e7565b9150612a0f826129ce565b601382019050919050565b7f222c2022696d616765223a2022697066733a2f2f000000000000000000000000600082015250565b6000612a506014836124e7565b9150612a5b82612a1a565b601482019050919050565b6000612a718261295f565b9150612a7d82876126ad565b9150612a88826129ab565b9150612a94828661253e565b9150612a9f826129f7565b9150612aab82856126ad565b9150612ab682612a43565b9150612ac282846126ad565b9150612acd826125e4565b915081905095945050505050565b6000612ae682612675565b9150612af2828461253e565b915081905092915050565b7f4e487b7100000000000000000000000000000000000000000000000000000000600052601160045260246000fd5b6000612b3782611db1565b9150612b4283611db1565b9250827fffffffffffffffffffffffffffffffffffffffffffffffffffffffffffffffff03821115612b7757612b76612afd565b5b828201905092915050565b7f4e487b7100000000000000000000000000000000000000000000000000000000600052601260045260246000fd5b6000612bbc82611db1565b9150612bc783611db1565b925082612bd757612bd6612b82565b5b828204905092915050565b6000612bed82611db1565b9150612bf883611db1565b9250817fffffffffffffffffffffffffffffffffffffffffffffffffffffffffffffffff0483118215151615612c3157612c30612afd565b5b828202905092915050565b60006060820190508181036000830152612c568186611d56565b9050612c656020830185612168565b612c726040830184611e46565b949350505050565b7f4552433732313a207472616e736665722066726f6d20696e636f72726563742060008201527f6f776e6572000000000000000000000000000000000000000000000000000000602082015250565b6000612cd6602583611d01565b9150612ce182612c7a565b604082019050919050565b60006020820190508181036000830152612d0581612cc9565b9050919050565b7f4552433732313a207472616e7366657220746f20746865207a65726f2061646460008201527f7265737300000000000000000000000000000000000000000000000000000000602082015250565b6000612d68602483611d01565b9150612d7382612d0c565b604082019050919050565b60006020820190508181036000830152612d9781612d5b565b9050919050565b6000612da982611db1565b9150612db483611db1565b925082821015612dc757612dc6612afd565b5b828203905092915050565b7f4552433732313a20617070726f766520746f2063616c6c657200000000000000600082015250565b6000612e08601983611d01565b9150612e1382612dd2565b602082019050919050565b60006020820190508181036000830152612e3781612dfb565b9050919050565b7f4552433732313a207472616e7366657220746f206e6f6e20455243373231526560008201527f63656976657220696d706c656d656e7465720000000000000000000000000000602082015250565b6000612e9a603283611d01565b9150612ea582612e3e565b604082019050919050565b60006020820190508181036000830152612ec981612e8d565b9050919050565b6000612edb82611db1565b91507fffffffffffffffffffffffffffffffffffffffffffffffffffffffffffffffff821415612f0e57612f0d612afd565b5b600182019050919050565b6000612f2482611db1565b9150612f2f83611db1565b925082612f3f57612f3e612b82565b5b828206905092915050565b600081519050919050565b600082825260208201905092915050565b6000612f7182612f4a565b612f7b8185612f55565b9350612f8b818560208601611d12565b612f9481611d45565b840191505092915050565b6000608082019050612fb46000830187611e46565b612fc16020830186611e46565b612fce6040830185612168565b8181036060830152612fe08184612f66565b905095945050505050565b600081519050612ffa81611c67565b92915050565b60006020828403121561301657613015611c31565b5b600061302484828501612feb565b91505092915050565b7f4552433732313a206d696e7420746f20746865207a65726f2061646472657373600082015250565b6000613063602083611d01565b915061306e8261302d565b602082019050919050565b6000602082019050818103600083015261309281613056565b9050919050565b7f4552433732313a20746f6b656e20616c7265616479206d696e74656400000000600082015250565b60006130cf601c83611d01565b91506130da82613099565b602082019050919050565b600060208201905081810360008301526130fe816130c2565b905091905056fe416e204e465420772f20494420257320686173206265656e206d696e74656420746f2025734142434445464748494a4b4c4d4e4f505152535455565758595a6162636465666768696a6b6c6d6e6f707172737475767778797a303132333435363738392b2fa2646970667358221220eddf5d7f88584d71d5469587b33ccd5efff0abe10e0b4eb49f21d70ef2e2f80064736f6c63430008090033",
  "linkReferences": {},
  "deployedLinkReferences": {}
}